:400000000080002011000000150400001504000008B5044B1A6803F53F5302331A6000F001FA00BFFA46004010B5054C237833B9044B13B10448AFF300800123237010BD4A
:400040005881FF1F00000000C00F0000084B10B51BB108490848AFF300800848036803B910BD074B002BFBD0BDE81040184700BF000000005C81FF1FC00F0000C880FF1F44
:400080000000000010B5034C0123237000F0A0FC606010BD7481FF1F08B562B600F0FEFC642000F0F1FE00F093FA00F075FC034800F094FD00F084FC08BD00BF8500000004
:4000C000064A9368C3EB0020001203EBC0009060C0F3C01303EB2020704700BF7481FF1F38B5FFF7D9FF1A4B1B7813F0FF0F14D0174C002323706368E2689B1A63606068E4
:40010000FFF7DEFF0546606800F0F2F90246114B18606068294600F06FFD0F4B1B68002BE1D00D4B1A680021196012F0010FDAD0012000F0D1F91E2000F0BCFE002000F093
:40014000CBF9034AD168034B1B680B44D360CAE77481FF1F4882FF1F4482FF1FFEE700BFF0B40022174611E050F82760F3B226F0FF0608E001EB420511F812406D78A555B6
:400180000132013BDBB2002BF4D10137182FEBD9F0BC70470D4B1B78DBB203F007010C4A11701B09013213703023A2F232721370102102F6C312117020210432117054327E
:4001C00013704422034B1A70704700BFCF0100496E5800407658004008B50A46002100F0E6FE08BD08B500F0D7FE08BD38B50024354B1C80502202331A70332202331A800B
:400200001823324A13704BF67F3102321180023213704FF6FF71023211800232137004222B492C48FFF7DEFF02222B4B1A7008224FF040231A70032203F500731A70274BFF
:400240001B78DBB2264A13701022264B1A8041F25122023B1A8019250CE0234B1B7803F0010343EA440404F003044FF4F07000F057FE013D0DB1032CEFD115B90320FFF765
:400280006DFF1A4B4FF480721A8007221A70002217490A704820023108701A700222033B1A7004220A331A70124A137843F00F031370013A137843F001031370013A137884
:4002C00043F08003137038BD80400040864000405C020048004100400043004008010049A146004022420040254200400440004006400040A243004038B572B6314A137812
:4003000043F00403137000240CE02F4D630019194A0011462A44084691882858FFF75CFF0134E4B2062CF0D928494FF09040FFF717FF0824264B1C70264A137843F00203EA
:4003400013701032137843F002031370224D2B7843F040032B70A2F58632513A137843F0100313700A221D491D48FFF73BFF22461C491D48FFF736FF0A221C491C48FFF7B2
:4003800031FF22461B491C48FFF72CFF22461B491B48FFF727FF1B4A1378234313701A4C61232370FFF722FFC12323700122174B1A70FFF7EFFE0E2229461548FFF712FF98
:4003C00038BD00BFE8460040C40F0000640000488358004003500140A04300402C020048C051004038020048F251004040020048105100404C0200482251004054020048AC
:4004000032510040224300400048004004000840B043004008B500F093FD03680C2B00D1FEE7FEE708B5104E104D16E029686B68AC68002204E051F8040B43F8040B04320F
:40044000A242F8D1E868002203E0002143F8041B04328242F9D11035013E002EE6D100F075FDFFF73DFEFEE7010000001410000008B5104A104B1A60104A136843F40073CA
:40048000136000230AE0032B03D80D4A52F8231000E00C490C4A42F8231001332F2BF2D90A4B1A780A4B1A70074A0A4B1A60FFF723FF08BD0004FA050CED00E014ED00E00E
:4004C00000000000150400000080FF1FBC760040C080FF1F08ED00E0044A137803F0FD03400000F0020018431070704720510040F0B4B0F1004F00D10130204A9368083329
:4005000093601F4A9B1AA72B01DD1C4B9A601B4B9D6868602F681B689D4201D1174B1F60164B1A6800211E4622E01468A54200D117605468A04204DD186828601D604FF062
:40054000004036680F4B9A4214D013681C68A54200D11F605C68A04204DD1068286015604FF00040074A934204D01A68013189B21429DAD97068F0BC704700BFCC80FF1F95
:400580008481FF1FD880FF1F10B40E4B1B78DB0983F001030C4802685340416884684C401C40846023EA01014160214323EA01035A400260134005490A6813430B6010BC24
:4005C000704700BF115100402C82FF1F4482FF1F08B5024800F040FB08BD00BF8905000010B59DF80840012C51D1013809282ED8DFE800F0052D2D052D2D0F192D230F2B67
:4006000003D92548007840B222E02448007840B21EE00F2B03D92248007840B218E02148007840B214E00F2B03D91F48007840B20EE01E48007840B20AE00F2B03D91C487F
:40064000007840B204E01B48007840B200E0002001EB401101FB02F1C90B8AB20D2B0BD8C3F10E0289B211418AB2611E124800EB810101338B7005E0631E0F4901EB8303D6
:400680000F219970013C0C4B23F8242010BD002000F0F8FB10BD00BF180100491C010049190100491D0100491A0100491E0100491B0100491F0100493882FF1FF8B50746B4
:4006C00000F036FC06460D4D2B7843F003032B700B4C237843F0030323700A4B1F70032000F0E8FB2B7803F0FC032B70237803F0FC032370304600F01FFCF8BDF84600401F
:40070000F94600409258004038B50022314B1A7101285DD1F822304B1A70002402331C70072201331A707F232C4A137001321470013213702A4B1C7001331C7001331C702F
:4007400003220A331A70502203F527631A707C2201331A700C2201331A70202201331A70442003331870422201331A70122201331A70012502331D70112201331A7019227D
:4007800001331A70972201331A70FFF797FF4722144B1A7001331C70052205331A700D2201331A7001331C700A2201331A704FF4FA020D4B1A602946412000F073FA294639
:4007C00040F2091000F0F2FA08491D2000F07CFB38BD00BF3882FF1F004E0040044E0040084E0040945800405082FF1F3D0A0000F0B583B0294D01272F70294E00247471A3
:40080000102000F03DFA102000F0BEFA07211D2000F06EFB0422234B1A7001331C7007331C70214A137843F0180313701F4B1C7003F2F5231C7001331C700A20A3F2093316
:40084000187001331C70A2F52172137843F0100313705B22164B1A705E2201331A7004331C701423134A137000974FF4004248F6E261FFF7B5FE2B78013B06EB83039A7884
:400880000D4B1A702B78013B36F823200B4B1A802878FFF739FF03B0F0BD00BFE080FF1F3882FF1F96580040075B00409358004088580040014E00400E4E00400C4E0040F3
:4008C00070B500F035FB06462A4B1B782A4B1A7842F001021A701A7842F010021A7010331A7842F001021A701A7842F010021A70224D2B7843F002032B70214C237843F025
:40090000020323701F4A137843F003031370032000F0D0FA2B7803F0FD032B70237803F0FD032370184A137843F0060313707A22164B1A70164A137843F001031370103226
:40094000137843F0010313700F3A137843F0010313701032137843F0010313704FF000530C4A1360A2F5C0721360304600F0E4FA70BD00BFE080FF1FAA430040F84600402D
:40098000F9460040915800407758004082580040A143004080E200E008B5084B9B794BB9064BDB7913F0FF0F01D1FFF721FF0122024B9A71FFF784FF08BD00BF3882FF1FEA
:4009C000024A137843F0010313707047004E0040154B1B7803F00303012B07D8134B1888023B1B889BB243EA004013E0022B0AD10E4B1888023B1B7843EA00430C4A107880
:400A000043EA002006E00B4B188883B2074A108843EA0040084B1B7913F0FF0F02D00022054B5A71704700BF144E0040124E0040114E0040104E00403882FF1F704700BFB8
:400A400008B50949012000F03FFA0721012000F04FFA0622054B1A70472210331A70022251331A7008BD00BF510B00002465004008B500F05DFA074A137843F010031370DF
:400A80000223054A1360A2F5C072136000F054FA08BD00BF9565004080E200E008B5054B1B7823B9FFF7CCFF0122024B1A70FFF7DFFF08BD4082FF1F164B99785B78DBB253
:400AC000994205D25A1E914214BF0022012204E0CA1A272A14BF00220122002AECD1994207D10D4B1B7813F0040F02D10B4B18707047272900D90021094B58540131054BE1
:400B00009970054B1B7813F0020F02D00222054B1A6070474082FF1F65650040456500405482FF1F00E200E0084B1B7833B97047305DFFF7C1FF0134E4B203E070B50D46C2
:400B400006460024AC42F3D370BD00BF4082FF1F13E0104B1B78DBB2272B02D900220D4B1A700C4A1378DBB20B49CB5CDBB20B490B7013780133DBB21370064B1B78DBB261
:400B8000074A1278934204D0064B1B7813F0040FDFD070474182FF1F5482FF1F456500404282FF1F65650040014B1B689864704708ED00E04001C0B2014B1870704700BF52
:400BC00002E400E00422014B1A60704700E100E00422014B1A60704780E100E010B50446FFF7F6FF2046FFF7DFFF0720FFF7E2FFFFF7E8FF10BD00BF00B585B0AA238DF810
:400C00000030BB238DF80130CDF80200CDF80610CDF80A200E216846FFF786FF05B05DF804FB00BF014B1B681864704708ED00E04001C0B2014B1870704700BF00E400E0A7
:400C40000122014B1A60704700E100E00122014B1A60704780E100E010B50446FFF7F6FF2046FFF7DFFF0720FFF7E2FFFFF7E8FF10BD00BF014B188880B2704780400040C2
:400C8000034B1A7800F0F80010431870704700BF82400040024B187800F00700704700BF8240004070B505460E46FFF7F3FF0446FFF7E0FFA84256D02B4B1B7803F00102F3
:400CC00094B900B185B938B9284B1D80284A137803F0BF03137070BD254A137843F040031370224B1D8070BD22B3002321490B7001240F310C7004310B700C390B7803F002
:400D00007F030B701A4B1B7813F0080F00D08DB9194B18800721013B1970164B1B7813F0010FFAD110490B7803F0FE030B700021104B19700C4B1B7813F0010F0DD00E4B50
:400D40001D800EB1032200E001220A4B1A70094B1B7813F0010FFAD170BD044B1D8002490B7813430B7070BDA243004080400040824000400140004002400040014B188850
:400D800080B2704700410040034B1A7800F0F80010431870704700BF02410040024B187800F00700704700BF0241004070B505460E46FFF7F3FF0446FFF7E0FFA84256D085
:400DC0002B4B1B7803F0010294B900B185B938B9284B1D80284A137803F0BF03137070BD254A137843F040031370224B1D8070BD22B3002321490B70012413310C7004392C
:400E00000B7008390B7803F07F030B701A4B1B7813F0080F00D08DB9194B18800721013B1970164B1B7813F0010FFAD110490B7803F0FE030B700021104B19700C4B1B7866
:400E400013F0010F0DD00E4B1D800EB1032200E001220A4B1A70094B1B7813F0010FFAD170BD044B1D8002490B7813430B7070BDA143004000410040024100400140004073
:400E80000240004001BE704710B5044605E0084B186800F045F8A4F50044B4F5004FF6D8034B586800FB04F000F03AF810BD00BFE480FF1F08B5034B1B7A00FB03F000F0F8
:400EC0002FF808BDE480FF1F70B504460E46074B1D681F2802D90020FFF7D4FF04F01F04103455F8240045F8246070BD08ED00E038B504460D46072902D90020FFF7C2FFE4
:400F00001F2C02D90020FFF7BDFF04F01F0000F1604000F564406D01EDB2057038BD00BF0230800803D000BF01380046FCD17047EFF3108072B6704780F31088704700BF25
:400F4000014B1868704700BF5481FF1F0E4B70B51E460E4C0025E41AA410A54204D056F8253098470135F8E700F042F8084B094C1E46E41AA4100025A54204D056F825306C
:400F800098470135F8E770BDFC0F0000FC0F0000FC0F00000410000010B5431E0A44914204D011F8014B03F8014FF8E710BD03460244934202D003F8011BFAE7704700008F
:400FC0000000000000510040100040510040300000000140001000140140000800400140000A004C014000020050014020004300F8B500BFF8BC08BC9E4670474D000000C7
:4010000071040000F8B500BFF8BC08BC9E4670472900000028100000C880FF1F90000000280100000000000000000000D880FF1F000000008481FF1F000000000000008023
:40104000010000000000C05D80BB000030000000006CDC020000000000000000000000000000000000000000000000000000000000000000EE0F00000000000000000000A0
:4010800000000000000000000000000000000000000000000000000000000000000000000000000000000000000000000000000000000000F480FF1F00000000000000009E
:4010C00000000000000000000000000000000000000000000000000000000000000000000000000000000000000000000000000000000000000000000000000000000000F0
:4011000000000000000000000000000000000000000000000000000000000000000000000000000000000000000000000000000000000000000000000000000000000000AF
:40114000000000000000000000000000000000000000000000000000000000000000000000000000000000000000000000000000000000000000000000000000000000006F
:40118000000000000000000000000000000000000000000000000000000000000000000000000000000000000000000000000000000000000000000000000000000000002F
:020000040003F7
:0200000480007A
:400000000352004001650040010301400205014001070140010B0140010D0140621401403C15014001170140021B0140044001400341014005420140054301400244014071
:400040000345014005460140014701400848014009490140014C0140074D014002500140015101400C8061807808850F8E109610E0029610E002E410000C02710409058041
:4000800006D0071314DC152C162217431A031B0C1C101EAC1F08201021712240230E24142A202D712F0630E0330F341F35C03730380839A03A023B083E043F404001454062
:4000C00049FF4A074BFF4C404D204EF04F055008580459045A045C115D015F01604061A86240632080138204861588208C138E0C9040940A95019614A003A214A608B01020
:40010000B220B301B440B60FBA80BE15BF04C016C104C60CC7EBC834C9FFCAFFCBFFCEF0CF44D00CD401D604D804D904DA04DB04DC01DD11DF01E6C0EA40EB0200040102F9
:40014000040805510802098A0A040D0A108811081680170819131A141DC01E481F0820052108221023082710288029413080310832103608380840014480458048804C04B2
:40018000500C550656C05C025E485F10660182018A408B188E0896109F10B710C0FCC237C43ECA09CC4ECE02D098D220D6F0D880E440EE409610E020E440320833803710BA
:4001C000CC709F10A608A78087019F10A608A780E04012089F11A608A780C4407C01DE018C019401E40845085C048508D001D601940424202701501056209F11A780C8A00B
:40020000D4601B8083108C1090209F10A780B620C640E220940473408B408C049404DC01E004E40210021A02002F0000800000808000800000000000000C0C000C000000F6
:400240008000008B0B00000000000000000202000000000000000000000034000A01180100000000000000000000000000000000000000000000000000000000000000000C
:40028000000000000000000000000000000000000000000000000000000000000000000000000000000000000000000000000000000000000000000000000000000000003E
:4002C00000000000000000000000000000000000000000000000000000000000000000000000000000000000000000000000000000000000000000000000000000000000FE
:4003000000000000000000000000000000000000000000000000000000000000000000000000000000000000000000000000000000000000000000000000000000000000BD
:40034000000000000000000000000000000000000000000000000000000000000000000000000000000000000000000000000000000000000000000000000000000000007D
:0200000490006A
:0400000000004005B7
:0200000490105A
:04000000BC90ACAF55
:0200000490303A
:020000001A33B1
:0200000490402A
:4000000000000000000000000000000000000000000000000000000000000000000000000000000000000000000000000000000000000000000000000000000000000000C0
:400040000000000000000000000000000000000000000000000000000000000000000000000000000000000000000000000000000000000000000000000000000000000080
:400080000000000000000000000000000000000000000000000000000000000000000000000000000000000000000000000000000000000000000000000000000000000040
:4000C0000000000000000000000000000000000000000000000000000000000000000000000000000000000000000000000000000000000000000000000000000000000000
:0200000490501A
:0C00000000012E16106900012E1C2A9C25
:00000001FF